:020000040000fa
:080000000002040000000000f2
:020000040000fa
:100008009a0200009a0200009a0200009a02000078
:100018009a0200009a0200009a0200009a02000068
:100028009a0200009a0200009a02000010060000de
:100038009a0200009a0200009a0200009a02000048
:100048009a0200009a0200009a0200009a02000038
:100058009a0200009a0200009a0200009a02000028
:100068009a0200009a0200009a020000a40500000b
:100078009a0200009a0200009a0200009a02000008
:100088009a0200009a0200009a0200009a020000f8
:100098009a0200009a0200009a0200009a020000e8
:1000a8009a0200009a0200009a0200009a020000d8
:1000b8009a0200009a0200009a0200009a020000c8
:1000c8009a0200009a0200009a0200009a020000b8
:1000d8009a0200009a0200009a0200009a020000a8
:1000e8009a0200009a0200009a0200009a02000098
:1000f8009a0200009a0200009a0200009a02000088
:100108009a0200009a0200009a0200009a02000077
:100118009a0200009a0200009a0200009a02000067
:100128009a0200009a0200009a0200009a02000057
:100138009a0200009a0200009a0200009a02000047
:100148009a0200009a0200009a0200009a02000037
:100158009a0200009a0200009a0200009a02000027
:100168009a0200009a0200009a0200009a02000017
:100178009a0200009a0200009a0200009a02000007
:100188009a0200009a0200009a0200009a020000f7
:100198009a0200009a0200009a0200009a020000e7
:1001a8009a0200009a0200009a0200009a020000d7
:1001b8009a0200009a0200009a0200009a020000c7
:1001c8009a0200009a0200009a0200009a020000b7
:1001d8009a0200009a0200009a0200009a020000a7
:1001e8009a0200009a0200009a0200009a02000097
:0801f8009a0200009a020000c7
:020000040000fa
:100208009a0200009a0200009a0200009a02000076
:100218009a0200009a0200009a0200009a02000066
:100228009a0200009a0200009a02000010060000dc
:100238009a0200009a0200009a0200009a02000046
:100248009a0200009a0200009a0200009a02000036
:100258009a0200009a0200009a0200009a02000026
:100268009a0200009a0200009a020000a405000009
:100278009a0200009a0200009a0200009a02000006
:100288009a0200009a0200009a0200009a020000f6
:100298009a0200009a0200009a0200009a020000e6
:1002a8009a0200009a0200009a0200009a020000d6
:1002b8009a0200009a0200009a0200009a020000c6
:1002c8009a0200009a0200009a0200009a020000b6
:1002d8009a0200009a0200009a0200009a020000a6
:1002e8009a0200009a0200009a0200009a02000096
:1002f8009a0200009a0200009a0200009a02000086
:100308009a0200009a0200009a0200009a02000075
:100318009a0200009a0200009a0200009a02000065
:100328009a0200009a0200009a0200009a02000055
:100338009a0200009a0200009a0200009a02000045
:100348009a0200009a0200009a0200009a02000035
:100358009a0200009a0200009a0200009a02000025
:100368009a0200009a0200009a0200009a02000015
:100378009a0200009a0200009a0200009a02000005
:100388009a0200009a0200009a0200009a020000f5
:100398009a0200009a0200009a0200009a020000e5
:1003a8009a0200009a0200009a0200009a020000d5
:1003b8009a0200009a0200009a0200009a020000c5
:1003c8009a0200009a0200009a0200009a020000b5
:1003d8009a0200009a0200009a0200009a020000a5
:1003e8009a0200009a0200009a0200009a02000095
:0803f8009a0200009a020000c5
:020000040000fa
:100400000f8120000e7f22000e01880000000000f6
:10041000000020000000e000020032000001200087
:10042000200288000c0007006075200001002000f9
:1004300011000700000020000000e0000200320070
:100440000000020000000000320502000000000071
:100450000040da000000fe004440a9002001200016
:100460000000e0000300320000002000a00188002e
:100470004440a80000000600910188008000780038
:100480000000eb0015003700e280400032a0b4000d
:100490009101ba00e280400032a0b4009102ba009b
:1004a000e280400032a0b4000002eb00472bde00e7
:1004b000f507b200602ce10004003a000059eb009f
:1004c0008301e900fdff3e00040037006128e100e0
:1004d000010032000082eb00040007001101ba00a5
:1004e0000200e000e8ff3a00000006003159ba00bf
:1004f0008301e9000c0032002159ba008301e900b0
:10050000080032000400e00003003a00e2804000ee
:1005100032a0b400f5ff370011d9ba008301e90019
:10052000faff3a008100e800e180400032a0b40008
:0c053000000006000040da000000fe00a1
:020000040000fa
:10053c00527500006e6e0000696e0000673a000094
:10054c0000530000746f00007070000065640000c0
:04055c003a00000061
:020000040000fa
:100560000800fa00004f7800110798002207980051
:10057000330798003e029000e00f52003600320030
:100580009e4278000582fb006802620043a2de0002
:1005900004427800614262000482fb004f22dd00c9
:1005a00066168000f5ff27008502630005027200d1
:1005b000641688009e4278000582fb006402620097
:1005c00042a2de0004427800614262000482fb0025
:1005d000610262004e22dd0066168000f5ff2b00ee
:1005e0008502630005027200641688009e4278004e
:1005f0000582fb00620262000482d100044278009e
:10060000614262000482fb00610262004d22dd0053
:1006100066168000f5ff2d0085026300050272005a
:10062000641688009e42780061c2620061426200e6
:10063000614262000482fb00610262004c22dd0024
:1006400066168000f5ff2e00850263000502720029
:1006500064168800380037009e4278000582fb004f
:100660004722de0004427800614262000482fb00ff
:100670004f22dd0066168000f5ff2700850263002b
:1006800005027200641688001e4278008482fb0016
:10069000040420000482620046a2de0004427800c6
:1006a000614262000482fb00610262004e22dd00b2
:1006b00066168000f5ff2b008502630005027200bc
:1006c000641688001e4278008482fb000402200029
:1006d0000482620045a2de000442780061426200aa
:1006e0000482fb00610262004d22dd00661680007c
:1006f000f5ff2d0085026300050272006416880074
:100700009e4278000582fb007002620044a2de0077
:1007100004427800614262000482fb0061026200d0
:100720004c22dd0066168000f5ff2e008502630076
:1007300005027200641688001e02900004427800d0
:10074000614262000482fb00610262004722dd0018
:1007500066168000f5f72f0085026300050272001f
:10076000641688001000200067010700ccc2a800b2
:100770001000200064010700ccc2a9001000200076
:10078000610107002e0090005f0107000080fa0061
:10079000000006000600fa00004f780011079800dc
:1007a000220798008001eb002e0190009e0090002f
:1007b0001e4078006aff0700130020002e01900001
:1007c0009e0090001e40780065ff07000080fa0040
:1007d000000006000200fa00004f78001e42780078
:1007e000e20220001100200004407800e9ff070029
:1007f0000080fa00000006000000fa00c8e2a9002c
:10080000c8c2a900c9e2a900c9c2a900c9a2a90019
:10081000c982a900c05d20003b0107001300200031
:10082000420021008000eb0030c0b3004cff070005
:1008300013002000420620008000eb0030c0b3000f
:1008400047ff0700820220008000eb0020c3b300b6
:10085000d0ff0700820220008000eb0080c2b300be
:10086000ccff0700820220008000eb0080c0b300b4
:10087000c8ff0700826620008000eb0010c0b300b4
:10088000c4ff0700820220008000eb0060c0b300bc
:10089000c0ff0700820220008000eb00c0c0b30050
:1008a000bcff07000080fa00000006000400fa0008
:1008b000100798000002eb00040f780007003700d3
:1008c0001e0278009e0290000482420014427800ca
:1008d00004407800bfff07001e0fe8001e027800ea
:1008e0009e0290000482420014427800e04f5200c1
:1008f000f3ff3a000080fa00000006000000fa0052
:10090000826620008000eb0010c0b300a1ff07004a
:100910000080fa00000006000400fa00204798005a
:100920003147980004082000040f78003e429000f0
:100930000482fb001e0f42002e429000e14f520045
:1009400002003a00040420001e0f42001e0278003c
:1009500004427800820220008000eb00044078000e
:100960008cff0700820220008000eb0000ccb30067
:1009700088ff07000080fa00000006000000fa006f
:10098000deff0700e0292800c8ff07000080fa000a
:10099000000006000000fa00d8ff0700702a2800b7
:1009a000c2ff07000080fa00000006000c00fa00f9
:1009b000000f78001107980022079800330798006d
:1009c00044079800550798008040eb0010c0b30022
:1009d000d1ff07001e027800044278000443b000f3
:1009e000044078007bff07001e029000044278005c
:1009f0000443b0000440780076ff0700a0c3b300b2
:100a000074ff07002e029000044278000443b000f7
:100a1000044078006fff07003e0290000442780017
:100a20000443b000044078006aff0700a0c3b3008d
:100a300068ff07004e029000044278000443b000b3
:100a40000440780063ff07005e02900004427800d3
:100a50000443b000044078005eff07000080fa0005
:100a6000000006000000fa0063ff0700e70007002f
:100a7000fe00070004010700d60007000002eb009b
:100a80006440880064408000e00f520003003200a0
:100a9000e10f520016003200faff3700100020006c
:100aa000e300070074408000e90f520004003c009e
:100ab000b2ff0700744080000402e8007440880020
:100ac000554080004440800021408000304080003c
:100ad0000740800016408000810178000001780006
:100ae0008700780006007800b0ff07001500370087
:100af00074408000e90f52000f003c00a5ff070082
:100b0000744080000402e800744088005540800072
:100b10004440800021408000304080000740800039
:100b2000164080008101780000017800870078007d
:100b3000060078009dff07000000eb00bc000700e6
:100b400000000000cfff3700849fbe003400f80093
:100b500004002000a40188000000fa008660a900bb
:100b60005416800064026200e00f52000d003a004b
:100b70000002eb007440880064408000e00f5200e7
:100b800003003a001400200064408800050037008c
:100b900064408000e10f520002003a000002eb00c6
:100ba0006440880055168000040220000482620020
:100bb000e00f520016003a005416800064026200f2
:100bc000e00f52001200320064408000e10f52003a
:100bd0000f003a000002eb00144088000002eb0016
:100be000044088000002eb00344088000002eb0063
:100bf000244088000002eb00444088000002eb0023
:100c000054408800644080000002eb00744088007b
:100c10000080fa003400f9004f02be0000400600d8
:100c2000841f78003400f80004002000a40188002c
:100c30000000fa008460a90064408000e00f5200c8
:100c40002c003a00544080000402e8005440880020
:100c500054408000e90f52000500340044408000f9
:100c60000402e800444088000002eb005440880081
:100c700044408000e90f5200050034002440800009
:100c80000402e800244088000002eb004440880091
:100c900024408000e90f52000500340034408000f9
:100ca0000402e800344088000002eb002440880081
:100cb00034408000e50f52000500340004408000fd
:100cc0000402e800044088000002eb003440880081
:100cd00004408000e90f52000700340014408000f7
:100ce0000402e800144088000002eb000440880081
:100cf00001003700644080000080fa003400f900f1
:100d00004f027800004006000200fa00000f780051
:100d10000002eb00340888001e0278006e22b90041
:100d20000402780064088800840880000440a10060
:100d30000450a1008408880084e0a90011e1a80003
:100d400000000000250480000408200004826200e6
:100d5000e00f5200fbff320084e0a90011e1a9007e
:100d60000080fa00000006000400fa001007980056
:100d70000002eb00040888009e029000940320000b
:100d800004aab9000402780014088800240880002e
:100d90000440a0000450a000240888008460a9003a
:100da00005e1a80000000000240480006802620041
:100db000e00f5200fcff32008460a900f423200001
:100dc000040f78001e027800140888000080fa00e2
:100dd000000006000200fa00f4232000040f78004f
:100de0001e02780014088800240880000440a00037
:100df0000450a000240888009460a8008460a90022
:100e000005e1a8000080fa00000006000000fa00da
:100e1000c002a900c022a900c602a800c622a800dc
:100e2000c402a800c422a8000080fa000000060046
:100e30000200fa00000f78001e027800e00f520056
:100e400003003a00c422a800c402a900050037002c
:100e50001e027800e10f520002003a00c422a900ed
:100e6000c402a8000080fa00000006000000fa009a
:100e7000c8a2a8008660a9009660a8006360a800c8
:100e80000080fa00000006000000fa008660a90059
:100e9000c842a8002c83a8009660a80060c0a800e3
:0c0ea00068c0a8000080fa0000000600f6
:020000040000fa
:100eac00000800001000000000000000000000001e
:020000040000fa
:020000040001f9
:0457f800ad7b000085
:020000040000fa
:020000040001f9
:0457fc003f3f00002b
:00000001FF
