:020000040000fa
:080000000002040000000000f2
:020000040000fa
:100008009a0200009a0200009a0200009a02000078
:100018009a0200009a0200009a0200009a02000068
:100028009a0200009a0200009a020000ce05000021
:100038009a0200009a0200009a0200009a02000048
:100048009a0200009a0200009a0200009a02000038
:100058009a0200009a0200009a0200009a02000028
:100068009a0200009a0200009a020000740500003b
:100078009a0200009a0200009a0200009a02000008
:100088009a0200009a0200009a0200009a020000f8
:100098009a0200009a0200009a0200009a020000e8
:1000a8009a0200009a0200009a0200009a020000d8
:1000b8009a0200009a0200009a0200009a020000c8
:1000c8009a0200009a0200009a0200009a020000b8
:1000d8009a0200009a0200009a0200009a020000a8
:1000e8009a0200009a0200009a0200009a02000098
:1000f8009a0200009a0200009a0200009a02000088
:100108009a0200009a0200009a0200009a02000077
:100118009a0200009a0200009a0200009a02000067
:100128009a0200009a0200009a0200009a02000057
:100138009a0200009a0200009a0200009a02000047
:100148009a0200009a0200009a0200009a02000037
:100158009a0200009a0200009a0200009a02000027
:100168009a0200009a0200009a0200009a02000017
:100178009a0200009a0200009a0200009a02000007
:100188009a0200009a0200009a0200009a020000f7
:100198009a0200009a0200009a0200009a020000e7
:1001a8009a0200009a0200009a0200009a020000d7
:1001b8009a0200009a0200009a0200009a020000c7
:1001c8009a0200009a0200009a0200009a020000b7
:1001d8009a0200009a0200009a0200009a020000a7
:1001e8009a0200009a0200009a0200009a02000097
:0801f8009a0200009a020000c7
:020000040000fa
:100208009a0200009a0200009a0200009a02000076
:100218009a0200009a0200009a0200009a02000066
:100228009a0200009a0200009a020000ce0500001f
:100238009a0200009a0200009a0200009a02000046
:100248009a0200009a0200009a0200009a02000036
:100258009a0200009a0200009a0200009a02000026
:100268009a0200009a0200009a0200007405000039
:100278009a0200009a0200009a0200009a02000006
:100288009a0200009a0200009a0200009a020000f6
:100298009a0200009a0200009a0200009a020000e6
:1002a8009a0200009a0200009a0200009a020000d6
:1002b8009a0200009a0200009a0200009a020000c6
:1002c8009a0200009a0200009a0200009a020000b6
:1002d8009a0200009a0200009a0200009a020000a6
:1002e8009a0200009a0200009a0200009a02000096
:1002f8009a0200009a0200009a0200009a02000086
:100308009a0200009a0200009a0200009a02000075
:100318009a0200009a0200009a0200009a02000065
:100328009a0200009a0200009a0200009a02000055
:100338009a0200009a0200009a0200009a02000045
:100348009a0200009a0200009a0200009a02000035
:100358009a0200009a0200009a0200009a02000025
:100368009a0200009a0200009a0200009a02000015
:100378009a0200009a0200009a0200009a02000005
:100388009a0200009a0200009a0200009a020000f5
:100398009a0200009a0200009a0200009a020000e5
:1003a8009a0200009a0200009a0200009a020000d5
:1003b8009a0200009a0200009a0200009a020000c5
:1003c8009a0200009a0200009a0200009a020000b5
:1003d8009a0200009a0200009a0200009a020000a5
:1003e8009a0200009a0200009a0200009a02000095
:0803f8009a0200009a020000c5
:020000040000fa
:10040000ef8020000e7f22000e0188000000000017
:10041000000020000000e000020032000001200087
:10042000200288000c0007006074200001002000fa
:1004300011000700000020000000e0000200320070
:100440000000020000000000320502000000000071
:100450000040da000000fe004440a9002001200016
:100460000000e0000300320000002000a00188002e
:100470004440a80000000600910188008000780038
:100480000000eb0015003700e280400032a0b4000d
:100490009101ba00e280400032a0b4009102ba009b
:1004a000e280400032a0b4000002eb00472bde00e7
:1004b000f507b200602ce10004003a000059eb009f
:1004c0008301e900fdff3e00040037006128e100e0
:1004d000010032000082eb00040007001101ba00a5
:1004e0000200e000e8ff3a00000006003159ba00bf
:1004f0008301e9000c0032002159ba008301e900b0
:10050000080032000400e00003003a00e2804000ee
:1005100032a0b400f5ff370011d9ba008301e90019
:10052000faff3a008100e800e180400032a0b40008
:0c053000000006000040da000000fe00a1
:020000040000fa
:10053c00527500006e6e0000696e0000673a000094
:10054c0000530000746f00007070000065640000c0
:04055c003a00000061
:020000040000fa
:100560000800fa00004f7800110798002207980051
:10057000330798003e029000e00f52003600320030
:100580009e4278000582fb006802620043a2de0002
:1005900004427800614262000482fb004f22dd00c9
:1005a00066168000f5ff27008502630005027200d1
:1005b000641688009e4278000582fb006402620097
:1005c00042a2de0004427800614262000482fb0025
:1005d000610262004e22dd0066168000f5ff2b00ee
:1005e0008502630005027200641688009e4278004e
:1005f0000582fb00620262000482d100044278009e
:10060000614262000482fb00610262004d22dd0053
:1006100066168000f5ff2d0085026300050272005a
:10062000641688009e42780061c2620061426200e6
:10063000614262000482fb00610262004c22dd0024
:1006400066168000f5ff2e00850263000502720029
:1006500064168800380037009e4278000582fb004f
:100660004722de0004427800614262000482fb00ff
:100670004f22dd0066168000f5ff2700850263002b
:1006800005027200641688001e4278008482fb0016
:10069000040420000482620046a2de0004427800c6
:1006a000614262000482fb00610262004e22dd00b2
:1006b00066168000f5ff2b008502630005027200bc
:1006c000641688001e4278008482fb000402200029
:1006d0000482620045a2de000442780061426200aa
:1006e0000482fb00610262004d22dd00661680007c
:1006f000f5ff2d0085026300050272006416880074
:100700009e4278000582fb007002620044a2de0077
:1007100004427800614262000482fb0061026200d0
:100720004c22dd0066168000f5ff2e008502630076
:1007300005027200641688001e02900004427800d0
:10074000614262000482fb00610262004722dd0018
:1007500066168000f5f72f0085026300050272001f
:10076000641688001000200062010700ccc2a800b7
:10077000100020005f010700ccc2a900100020007b
:100780005c0107002e0090005a0107000080fa006b
:10079000000006000600fa00004f780011079800dc
:1007a000220798008001eb002e0190009e0090002f
:1007b0001e4078006aff0700130020002e01900001
:1007c0009e0090001e40780065ff07000080fa0040
:1007d000000006000200fa00004f78001e42780078
:1007e000e20220001100200004407800e9ff070029
:1007f0000080fa00000006000000fa00c8e2a9002c
:10080000c8c2a900c9e2a900c9c2a900c9a2a90019
:10081000c982a900c05d2000360107001300200036
:10082000420021008000eb0030c0b3004cff070005
:1008300013002000420620008000eb0030c0b3000f
:1008400047ff0700820220008000eb0020c3b300b6
:10085000d0ff0700820220008000eb0080c2b300be
:10086000ccff0700820220008000eb0080c0b300b4
:10087000c8ff0700826620008000eb0010c0b300b4
:10088000c4ff0700820220008000eb0060c0b300bc
:10089000c0ff0700820220008000eb00c0c0b30050
:1008a000bcff07000080fa00000006000400fa0008
:1008b000100798000002eb00040f780007003700d3
:1008c0001e0278009e0290000482420014427800ca
:1008d00004407800bfff07001e0fe8001e027800ea
:1008e0009e0290000482420014427800e04f5200c1
:1008f000f3ff3a000080fa00000006000000fa0052
:10090000826620008000eb0010c0b300a1ff07004a
:100910000080fa00000006000400fa00204798005a
:100920003147980004082000040f78003e429000f0
:100930000482fb001e0f42002e429000e14f520045
:1009400002003a00040420001e0f42001e0278003c
:1009500004427800820220008000eb00044078000e
:100960008cff0700820220008000eb0000ccb30067
:1009700088ff07000080fa00000006000000fa006f
:10098000deff0700e0292800c8ff07000080fa000a
:10099000000006000000fa00d8ff0700702a2800b7
:1009a000c2ff07000080fa00000006000c00fa00f9
:1009b000000f78001107980022079800330798006d
:1009c00044079800550798008040eb0010c0b30022
:1009d000d1ff07001e027800044278000443b000f3
:1009e000044078007bff07001e029000044278005c
:1009f0000443b0000440780076ff0700a0c3b300b2
:100a000074ff07002e029000044278000443b000f7
:100a1000044078006fff07003e0290000442780017
:100a20000443b000044078006aff0700a0c3b3008d
:100a300068ff07004e029000044278000443b000b3
:100a40000440780063ff07005e02900004427800d3
:100a50000443b000044078005eff07000080fa0005
:100a6000000006000000fa0063ff0700df00070037
:100a7000f6000700fc000700ce0007000002eb00b4
:100a800064408800bdff070064408000e00f520012
:100a900003003200e10f52000f003200faff37006e
:100aa00010002000da00070055408000444080001c
:100ab00021408000304080000740800016408000c8
:100ac0008101780000017800870078000600780036
:100ad000b6ff0700030037000000eb00cc00070062
:100ae00000000000e8ff37003600f800809fbe00dd
:100af000829fbe00849fbe00869fbe003400f80027
:100b000000002000a00188000000fa008660a90013
:100b10005416800064026200e00f5200110032009f
:100b200064408000e00f520006003a0050002000b0
:100b300088000700140020006440880095ff07002b
:100b40000800370064408000e10f520005003a00c1
:100b5000500020007f0007000002eb006440880086
:100b600086ff07005416800064026200e00f520006
:100b700002003a0050002000760007000080fa00d2
:100b80003400f9004f03be004f02be004f01be000b
:100b90004f00be003600f900004006003600f800a5
:100ba000809fbe00829fbe00849fbe00869fbe00c5
:100bb0003400f80000002000a00188000000fa00c6
:100bc0008460a90064408000e00f52002c003a00cd
:100bd000544080000402e8005440880054408000e3
:100be000e90f520005003400444080000402e80090
:100bf000444088000002eb005440880044408000dc
:100c0000e90f520005003400244080000402e8008f
:100c1000244088000002eb0044408800244080000b
:100c2000e90f520005003400344080000402e8005f
:100c3000344088000002eb002440880034408000eb
:100c4000e50f520005003400044080000402e80073
:100c5000044088000002eb0034408800044080001b
:100c6000e90f52001b003400144080000402e80029
:100c7000144088000002eb00044088001500370093
:100c800064408000e10f520012003a0004408000ee
:100c900004408800244080002440880044408000b4
:100ca00044408800544080005440880054408000f4
:100cb00040408000274080000640800015408000b2
:100cc0008001780007017800860078000500780030
:100cd00036ff07000080fa003400f9004f03be0021
:100ce0004f02be004f01be004f00be003600f900ab
:100cf000004006000200fa00000f78000002eb003e
:100d0000340888001e0278006e22b90004027800c0
:100d100064088800840880000440a1000450a100f9
:100d20008408880084e0a90011e1a8000000000008
:100d3000250480000408200004826200e00f5200b5
:100d4000fbff320084e0a90011e1a9000080fa0055
:100d5000000006000200fa00000f78000002eb001d
:100d6000040888009e0278009403200004aab900b9
:100d70000402780014088800240880000440a000c1
:100d80000450a000240888008460a90005e1a800a0
:100d9000000000002404800068026200e00f52009e
:100da000fcff32008460a90005e1a9000080fa0080
:100db000000006000200fa00f4232000040f78006f
:100dc0001e02780014088800240880000440a00057
:100dd0000450a000240888009460a8008460a90042
:100de00005e1a8000080fa00000006000000fa00fb
:100df000c002a900c022a900c602a800c622a800fd
:100e0000c402a800c422a8000080fa000000060066
:100e10000200fa00000f78001e027800e00f520076
:100e200003003a00c422a800c402a900050037004c
:100e30001e027800e10f520002003a00c422a9000d
:100e4000c402a8000080fa00000006000000fa00ba
:100e5000c8a2a8008660a9009660a8006360a800e8
:100e60000080fa00000006000000fa008660a90079
:100e7000c842a8002c83a8009660a80060c0a80003
:0c0e800068c0a8000080fa000000060016
:020000040000fa
:100e8c00000800000e000000000000000000000040
:020000040000fa
:020000040001f9
:0457f800ad7b000085
:020000040000fa
:020000040001f9
:0457fc003f3f00002b
:00000001FF
