:020000040000fa
:080000000002040000000000f2
:020000040000fa
:100008009a0200009a0200009a0200009a02000078
:100018009a0200009a0200009a0200009a02000068
:100028009a0200009a0200009a0200009e05000051
:100038009a0200009a0200009a0200009a02000048
:100048009a0200009a0200009a0200009a02000038
:100058009a0200009a0200009a0200009a02000028
:100068009a0200009a0200009a020000140500009b
:100078009a0200009a0200009a0200009a02000008
:100088009a0200009a0200009a0200009a020000f8
:100098009a0200009a0200009a0200009a020000e8
:1000a8009a0200009a0200009a0200009a020000d8
:1000b8009a0200009a0200009a0200009a020000c8
:1000c8009a0200009a0200009a0200009a020000b8
:1000d8009a0200009a0200009a0200009a020000a8
:1000e8009a0200009a0200009a0200009a02000098
:1000f8009a0200009a0200009a0200009a02000088
:100108009a0200009a0200009a0200009a02000077
:100118009a0200009a0200009a0200009a02000067
:100128009a0200009a0200009a0200009a02000057
:100138009a0200009a0200009a0200009a02000047
:100148009a0200009a0200009a0200009a02000037
:100158009a0200009a0200009a0200009a02000027
:100168009a0200009a0200009a0200009a02000017
:100178009a0200009a0200009a0200009a02000007
:100188009a0200009a0200009a0200009a020000f7
:100198009a0200009a0200009a0200009a020000e7
:1001a8009a0200009a0200009a0200009a020000d7
:1001b8009a0200009a0200009a0200009a020000c7
:1001c8009a0200009a0200009a0200009a020000b7
:1001d8009a0200009a0200009a0200009a020000a7
:1001e8009a0200009a0200009a0200009a02000097
:0801f8009a0200009a020000c7
:020000040000fa
:100208009a0200009a0200009a0200009a02000076
:100218009a0200009a0200009a0200009a02000066
:100228009a0200009a0200009a0200009e0500004f
:100238009a0200009a0200009a0200009a02000046
:100248009a0200009a0200009a0200009a02000036
:100258009a0200009a0200009a0200009a02000026
:100268009a0200009a0200009a0200001405000099
:100278009a0200009a0200009a0200009a02000006
:100288009a0200009a0200009a0200009a020000f6
:100298009a0200009a0200009a0200009a020000e6
:1002a8009a0200009a0200009a0200009a020000d6
:1002b8009a0200009a0200009a0200009a020000c6
:1002c8009a0200009a0200009a0200009a020000b6
:1002d8009a0200009a0200009a0200009a020000a6
:1002e8009a0200009a0200009a0200009a02000096
:1002f8009a0200009a0200009a0200009a02000086
:100308009a0200009a0200009a0200009a02000075
:100318009a0200009a0200009a0200009a02000065
:100328009a0200009a0200009a0200009a02000055
:100338009a0200009a0200009a0200009a02000045
:100348009a0200009a0200009a0200009a02000035
:100358009a0200009a0200009a0200009a02000025
:100368009a0200009a0200009a0200009a02000015
:100378009a0200009a0200009a0200009a02000005
:100388009a0200009a0200009a0200009a020000f5
:100398009a0200009a0200009a0200009a020000e5
:1003a8009a0200009a0200009a0200009a020000d5
:1003b8009a0200009a0200009a0200009a020000c5
:1003c8009a0200009a0200009a0200009a020000b5
:1003d8009a0200009a0200009a0200009a020000a5
:1003e8009a0200009a0200009a0200009a02000095
:0803f8009a0200009a020000c5
:020000040000fa
:10040000cf8020000e7f22000e0188000000000037
:10041000000020000000e000020032000001200087
:10042000200288000c000700806e200001002000e0
:1004300011000700000020000000e0000200320070
:100440000000020000000000de04020000000000c6
:100450000040da000000fe004440a900e001200056
:100460000000e0000300320000002000a00188002e
:100470004440a80000000600910188008000780038
:100480000000eb0015003700e280400032a0b4000d
:100490009101ba00e280400032a0b4009102ba009b
:1004a000e280400032a0b4000002eb00472bde00e7
:1004b000f507b200602ce10004003a000059eb009f
:1004c0008301e900fdff3e00040037006128e100e0
:1004d000010032000082eb00040007001101ba00a5
:1004e0000200e000e8ff3a00000006003159ba00bf
:1004f0008301e9000c0032002159ba008301e900b0
:10050000080032000400e00003003a00e2804000ee
:1005100032a0b400f5ff370011d9ba008301e90019
:10052000faff3a008100e800e180400032a0b40008
:0c053000000006000040da000000fe00a1
:020000040000fa
:10053c00527500006e6e0000696e0000673a000094
:10054c0000530000746f00007070000065640000c0
:10055c003a000000256400003a250000643a0000cf
:0c056c0025640000256400000000000071
:020000040000fa
:100578000800fa00004f7800110798002207980039
:10058800330798003e029000e00f52003600320018
:100598009e4278000582fb006802620043a2de00ea
:1005a80004427800614262000482fb004f22dd00b1
:1005b80066168000f5ff27008502630005027200b9
:1005c800641688009e4278000582fb00640262007f
:1005d80042a2de0004427800614262000482fb000d
:1005e800610262004e22dd0066168000f5ff2b00d6
:1005f8008502630005027200641688009e42780036
:100608000582fb00620262000482d1000442780085
:10061800614262000482fb00610262004d22dd003b
:1006280066168000f5ff2d00850263000502720042
:10063800641688009e42780061c2620061426200ce
:10064800614262000482fb00610262004c22dd000c
:1006580066168000f5ff2e00850263000502720011
:1006680064168800380037009e4278000582fb0037
:100678004722de0004427800614262000482fb00e7
:100688004f22dd0066168000f5ff27008502630013
:1006980005027200641688001e4278008482fb00fe
:1006a800040420000482620046a2de0004427800ae
:1006b800614262000482fb00610262004e22dd009a
:1006c80066168000f5ff2b008502630005027200a4
:1006d800641688001e4278008482fb000402200011
:1006e8000482620045a2de00044278006142620092
:1006f8000482fb00610262004d22dd006616800064
:10070800f5ff2d008502630005027200641688005b
:100718009e4278000582fb007002620044a2de005f
:1007280004427800614262000482fb0061026200b8
:100738004c22dd0066168000f5ff2e00850263005e
:1007480005027200641688001e02900004427800b8
:10075800614262000482fb00610262004722dd0000
:1007680066168000f5f72f00850263000502720007
:1007780064168800100020002d010700ccc2a800d4
:10078800100020002a010700ccc2a9001000200098
:10079800270107002e009000250107000080fa00bd
:1007a800000006000600fa00004f780011079800c4
:1007b800220798008001eb002e0190009e00900017
:1007c8001e4078006aff0700130020002e019000e9
:1007d8009e0090001e40780065ff07000080fa0028
:1007e800000006000200fa00004f78001e42780060
:1007f800e20220001100200004407800e9ff070011
:100808000080fa00000006000000fa00c8e2a90013
:10081800c8c2a900c9e2a900c9c2a900c9a2a90001
:10082800c982a900c05d2000010107001300200053
:10083800420021008000eb0030c0b3004cff0700ed
:1008480013002000420620008000eb0030c0b300f7
:1008580047ff0700820220008000eb0020c3b3009e
:10086800d0ff0700820220008000eb0080c2b300a6
:10087800ccff0700820220008000eb0080c0b3009c
:10088800c8ff0700826620008000eb0010c0b3009c
:10089800c4ff0700820220008000eb0060c0b300a4
:1008a800c0ff0700820220008000eb00c0c0b30038
:1008b800bcff07000080fa00000006000400fa00f0
:1008c800100798000002eb00040f780007003700bb
:1008d8001e0278009e0290000482420014427800b2
:1008e80004407800bfff07001e0fe8001e027800d2
:1008f8009e0290000482420014427800e04f5200a9
:10090800f3ff3a000080fa00000006000000fa0039
:10091800826620008000eb0010c0b300a1ff070032
:100928000080fa00000006000400fa002047980042
:10093800314798000042eb00044f78003e42900097
:10094800e14f520003003a00ae42900004c4b300e5
:1009580004cf7200820220008000eb001e40780065
:1009680090ff07000080fa00000006000000fa006f
:10097800e0292800d1ff07000080fa0000000600e7
:100988000000fa00702a2800ccff07000080fa0057
:10099800000006000000fa008040eb0010c0b30021
:1009a800e1ff0700002b2800c4ff07000080fa00c1
:1009b800000006000000fa0093ff0700da000700b5
:1009c800f1000700f7000700c90007000002eb006c
:1009d80044408800010037000000000044408000c7
:1009e800e10f52000a003200e10f52000500390001
:1009f800e20f5200f8ff3a0054408000444088005b
:100a08000600370010002000d00007000300370060
:100a18000000eb00cd00070000000000efff3700ea
:100a28003600f800809fbe00829fbe00849fbe00f3
:100a3800869fbe003400f80000002000a001880056
:100a48000000fa008660a900541680006402620063
:100a5800e00f520002003a00500020008c0007000e
:100a68005416800064026200e00f52000f0032004a
:100a780044408000e00f520005003a00500020007a
:100a88008300070014002000444088000700370056
:100a980044408000e10f520004003a00500020005a
:100aa8007b0007000002eb004440880055168000d8
:100ab8000402200004826200e00f520015003a0090
:100ac8005416800064026200e00f520011003200e8
:100ad800500020006e00070044408000e10f5200e3
:100ae8000c003a000002eb00040888008460a900aa
:100af80005e1a9000002eb00044088000002eb00b9
:100b0800144088000002eb00244088000002eb003b
:100b1800344088000080fa003400f9004f03be001a
:100b28004f02be004f01be004f00be003600f90064
:100b3800004006003600f800809fbe00829fbe007d
:100b4800849fbe00869fbe003400f800000020008d
:100b5800a00188000000fa008460a90044408000d9
:100b6800e00f52001e003a00344080000402e80002
:100b78003440880034408000e90f520005003400fa
:100b8800244080000402e800244088000002eb00b2
:100b98003440880024408000e90f520005003400ea
:100ba800144080000402e800144088000002eb00b2
:100bb8002440880015408000b4032000848f520030
:100bc80005003400044080000402e8000440880066
:100bd8000002eb00144088006eff07000c0037008d
:100be80044408000e10f520009003a0004408000b0
:100bf800044088001440800014408800244080008d
:100c080024408800344080003440880061ff070099
:100c18000080fa003400f9004f03be004f02be0006
:100c28004f01be004f00be003600f900004006002c
:100c38000200fa00000f78000002eb003408880078
:100c48001e0278006e22b900040278006408880049
:100c5800840880000440a1000450a1008408880092
:100c680084e0a90011e1a80000000000250480002c
:100c78000408200004826200e00f5200fbff3200eb
:100c880084e0a90011e1a9000080fa000000060034
:100c98000200fa00000f78000002eb000408880048
:100ca8009e0278009403200004aab9000402780088
:100cb80014088800240880000440a0000450a00004
:100cc800240888008460a90005e1a800000000004d
:100cd8002404800068026200e00f5200fcff32002a
:100ce8008460a90005e1a9000080fa000000060060
:100cf8000200fa00f4232000040f78001e02780096
:100d080014088800240880000440a0000450a000b3
:100d1800240888009460a8008460a90005e1a80060
:100d28000080fa00000006000000fa00c002a900d6
:100d3800c022a900c602a800c622a800c402a800b2
:100d4800c422a8000080fa00000006000200fa0091
:100d5800000f78001e027800e00f520003003a00ee
:100d6800c422a800c402a900050037001e027800aa
:100d7800e10f520002003a00c422a900c402a800f0
:100d88000080fa00000006000000fa00c8a2a800cf
:100d98008660a9009660a8006360a8000080fa0039
:100da800000006000000fa008660a900c842a800fa
:100db8002c83a8009660a80060c0a80068c0a8009e
:080dc8000080fa0000000600a3
:020000040000fa
:100dd000000800000c0000000000000000000000ff
:020000040000fa
:020000040001f9
:0457f800ad7b000085
:020000040000fa
:020000040001f9
:0457fc003f3f00002b
:00000001FF
